{
    "_format": "hh-sol-artifact-1",
    "contractName": "AfbelardiPhotoNFT",
    "sourceName": "contracts/AfbelardiPhotoNFT.sol",
    "abi": [
        {
            "inputs": [],
            "stateMutability": "payable",
            "type": "constructor"
        },
        {
            "anonymous": false,
            "inputs": [
                {
                    "indexed": true,
                    "internalType": "address",
                    "name": "owner",
                    "type": "address"
                },
                {
                    "indexed": true,
                    "internalType": "address",
                    "name": "approved",
                    "type": "address"
                },
                {
                    "indexed": true,
                    "internalType": "uint256",
                    "name": "tokenId",
                    "type": "uint256"
                }
            ],
            "name": "Approval",
            "type": "event"
        },
        {
            "anonymous": false,
            "inputs": [
                {
                    "indexed": true,
                    "internalType": "address",
                    "name": "owner",
                    "type": "address"
                },
                {
                    "indexed": true,
                    "internalType": "address",
                    "name": "operator",
                    "type": "address"
                },
                {
                    "indexed": false,
                    "internalType": "bool",
                    "name": "approved",
                    "type": "bool"
                }
            ],
            "name": "ApprovalForAll",
            "type": "event"
        },
        {
            "anonymous": false,
            "inputs": [
                {
                    "indexed": true,
                    "internalType": "address",
                    "name": "previousOwner",
                    "type": "address"
                },
                {
                    "indexed": true,
                    "internalType": "address",
                    "name": "newOwner",
                    "type": "address"
                }
            ],
            "name": "OwnershipTransferred",
            "type": "event"
        },
        {
            "anonymous": false,
            "inputs": [
                {
                    "indexed": true,
                    "internalType": "address",
                    "name": "from",
                    "type": "address"
                },
                {
                    "indexed": true,
                    "internalType": "address",
                    "name": "to",
                    "type": "address"
                },
                {
                    "indexed": true,
                    "internalType": "uint256",
                    "name": "tokenId",
                    "type": "uint256"
                }
            ],
            "name": "Transfer",
            "type": "event"
        },
        {
            "inputs": [
                {
                    "internalType": "address",
                    "name": "to",
                    "type": "address"
                },
                {
                    "internalType": "uint256",
                    "name": "tokenId",
                    "type": "uint256"
                }
            ],
            "name": "approve",
            "outputs": [],
            "stateMutability": "nonpayable",
            "type": "function"
        },
        {
            "inputs": [
                {
                    "internalType": "address",
                    "name": "owner",
                    "type": "address"
                }
            ],
            "name": "balanceOf",
            "outputs": [
                {
                    "internalType": "uint256",
                    "name": "",
                    "type": "uint256"
                }
            ],
            "stateMutability": "view",
            "type": "function"
        },
        {
            "inputs": [
                {
                    "internalType": "uint256",
                    "name": "tokenId",
                    "type": "uint256"
                }
            ],
            "name": "getApproved",
            "outputs": [
                {
                    "internalType": "address",
                    "name": "",
                    "type": "address"
                }
            ],
            "stateMutability": "view",
            "type": "function"
        },
        {
            "inputs": [
                {
                    "internalType": "address",
                    "name": "owner",
                    "type": "address"
                },
                {
                    "internalType": "address",
                    "name": "operator",
                    "type": "address"
                }
            ],
            "name": "isApprovedForAll",
            "outputs": [
                {
                    "internalType": "bool",
                    "name": "",
                    "type": "bool"
                }
            ],
            "stateMutability": "view",
            "type": "function"
        },
        {
            "inputs": [],
            "name": "isPublicMintEnabled",
            "outputs": [
                {
                    "internalType": "bool",
                    "name": "",
                    "type": "bool"
                }
            ],
            "stateMutability": "view",
            "type": "function"
        },
        {
            "inputs": [],
            "name": "maxPerWallet",
            "outputs": [
                {
                    "internalType": "uint256",
                    "name": "",
                    "type": "uint256"
                }
            ],
            "stateMutability": "view",
            "type": "function"
        },
        {
            "inputs": [],
            "name": "maxSupply",
            "outputs": [
                {
                    "internalType": "uint256",
                    "name": "",
                    "type": "uint256"
                }
            ],
            "stateMutability": "view",
            "type": "function"
        },
        {
            "inputs": [
                {
                    "internalType": "uint256",
                    "name": "quantity_",
                    "type": "uint256"
                }
            ],
            "name": "mint",
            "outputs": [],
            "stateMutability": "payable",
            "type": "function"
        },
        {
            "inputs": [],
            "name": "mintPrice",
            "outputs": [
                {
                    "internalType": "uint256",
                    "name": "",
                    "type": "uint256"
                }
            ],
            "stateMutability": "view",
            "type": "function"
        },
        {
            "inputs": [],
            "name": "name",
            "outputs": [
                {
                    "internalType": "string",
                    "name": "",
                    "type": "string"
                }
            ],
            "stateMutability": "view",
            "type": "function"
        },
        {
            "inputs": [],
            "name": "owner",
            "outputs": [
                {
                    "internalType": "address",
                    "name": "",
                    "type": "address"
                }
            ],
            "stateMutability": "view",
            "type": "function"
        },
        {
            "inputs": [
                {
                    "internalType": "uint256",
                    "name": "tokenId",
                    "type": "uint256"
                }
            ],
            "name": "ownerOf",
            "outputs": [
                {
                    "internalType": "address",
                    "name": "",
                    "type": "address"
                }
            ],
            "stateMutability": "view",
            "type": "function"
        },
        {
            "inputs": [],
            "name": "renounceOwnership",
            "outputs": [],
            "stateMutability": "nonpayable",
            "type": "function"
        },
        {
            "inputs": [
                {
                    "internalType": "address",
                    "name": "from",
                    "type": "address"
                },
                {
                    "internalType": "address",
                    "name": "to",
                    "type": "address"
                },
                {
                    "internalType": "uint256",
                    "name": "tokenId",
                    "type": "uint256"
                }
            ],
            "name": "safeTransferFrom",
            "outputs": [],
            "stateMutability": "nonpayable",
            "type": "function"
        },
        {
            "inputs": [
                {
                    "internalType": "address",
                    "name": "from",
                    "type": "address"
                },
                {
                    "internalType": "address",
                    "name": "to",
                    "type": "address"
                },
                {
                    "internalType": "uint256",
                    "name": "tokenId",
                    "type": "uint256"
                },
                {
                    "internalType": "bytes",
                    "name": "data",
                    "type": "bytes"
                }
            ],
            "name": "safeTransferFrom",
            "outputs": [],
            "stateMutability": "nonpayable",
            "type": "function"
        },
        {
            "inputs": [
                {
                    "internalType": "address",
                    "name": "operator",
                    "type": "address"
                },
                {
                    "internalType": "bool",
                    "name": "approved",
                    "type": "bool"
                }
            ],
            "name": "setApprovalForAll",
            "outputs": [],
            "stateMutability": "nonpayable",
            "type": "function"
        },
        {
            "inputs": [
                {
                    "internalType": "string",
                    "name": "baseTokenUri_",
                    "type": "string"
                }
            ],
            "name": "setBaseTokenUri",
            "outputs": [],
            "stateMutability": "nonpayable",
            "type": "function"
        },
        {
            "inputs": [
                {
                    "internalType": "bool",
                    "name": "isPublicMintEnabled_",
                    "type": "bool"
                }
            ],
            "name": "setIsPublicMintEnabled",
            "outputs": [],
            "stateMutability": "nonpayable",
            "type": "function"
        },
        {
            "inputs": [
                {
                    "internalType": "bytes4",
                    "name": "interfaceId",
                    "type": "bytes4"
                }
            ],
            "name": "supportsInterface",
            "outputs": [
                {
                    "internalType": "bool",
                    "name": "",
                    "type": "bool"
                }
            ],
            "stateMutability": "view",
            "type": "function"
        },
        {
            "inputs": [],
            "name": "symbol",
            "outputs": [
                {
                    "internalType": "string",
                    "name": "",
                    "type": "string"
                }
            ],
            "stateMutability": "view",
            "type": "function"
        },
        {
            "inputs": [
                {
                    "internalType": "uint256",
                    "name": "tokenId_",
                    "type": "uint256"
                }
            ],
            "name": "tokenURI",
            "outputs": [
                {
                    "internalType": "string",
                    "name": "",
                    "type": "string"
                }
            ],
            "stateMutability": "view",
            "type": "function"
        },
        {
            "inputs": [],
            "name": "totalSupply",
            "outputs": [
                {
                    "internalType": "uint256",
                    "name": "",
                    "type": "uint256"
                }
            ],
            "stateMutability": "view",
            "type": "function"
        },
        {
            "inputs": [
                {
                    "internalType": "address",
                    "name": "from",
                    "type": "address"
                },
                {
                    "internalType": "address",
                    "name": "to",
                    "type": "address"
                },
                {
                    "internalType": "uint256",
                    "name": "tokenId",
                    "type": "uint256"
                }
            ],
            "name": "transferFrom",
            "outputs": [],
            "stateMutability": "nonpayable",
            "type": "function"
        },
        {
            "inputs": [
                {
                    "internalType": "address",
                    "name": "newOwner",
                    "type": "address"
                }
            ],
            "name": "transferOwnership",
            "outputs": [],
            "stateMutability": "nonpayable",
            "type": "function"
        },
        {
            "inputs": [
                {
                    "internalType": "address",
                    "name": "",
                    "type": "address"
                }
            ],
            "name": "walletMints",
            "outputs": [
                {
                    "internalType": "uint256",
                    "name": "",
                    "type": "uint256"
                }
            ],
            "stateMutability": "view",
            "type": "function"
        },
        {
            "inputs": [],
            "name": "withdraw",
            "outputs": [],
            "stateMutability": "payable",
            "type": "function"
        },
        {
            "inputs": [],
            "name": "withdrawWallet",
            "outputs": [
                {
                    "internalType": "address",
                    "name": "",
                    "type": "address"
                }
            ],
            "stateMutability": "view",
            "type": "function"
        }
    ],
    "bytecode": "0x60806040526040518060400160405280601181526020017f416662656c6172646950686f746f4e46540000000000000000000000000000008152506040518060400160405280600381526020017f414642000000000000000000000000000000000000000000000000000000000081525081600090816200008191906200047e565b5080600190816200009391906200047e565b505050620000b6620000aa6200013660201b60201c565b6200013e60201b60201c565b66470de4df8200006007819055506000600881905550600980819055506003600a8190555073f72cb599deb8f2cb5768b6cd94a295c299bd612f600d60006101000a81548173ffffffffffffffffffffffffffffffffffffffff021916908373ffffffffffffffffffffffffffffffffffffffff16021790555062000565565b600033905090565b6000600660009054906101000a900473ffffffffffffffffffffffffffffffffffffffff16905081600660006101000a81548173ffffffffffffffffffffffffffffffffffffffff021916908373ffffffffffffffffffffffffffffffffffffffff1602179055508173ffffffffffffffffffffffffffffffffffffffff168173ffffffffffffffffffffffffffffffffffffffff167f8be0079c531659141344cd1fd0a4f28419497f9722a3daafe3b4186f6b6457e060405160405180910390a35050565b600081519050919050565b7f4e487b7100000000000000000000000000000000000000000000000000000000600052604160045260246000fd5b7f4e487b7100000000000000000000000000000000000000000000000000000000600052602260045260246000fd5b600060028204905060018216806200028657607f821691505b6020821081036200029c576200029b6200023e565b5b50919050565b60008190508160005260206000209050919050565b60006020601f8301049050919050565b600082821b905092915050565b600060088302620003067fffffffffffffffffffffffffffffffffffffffffffffffffffffffffffffffff82620002c7565b620003128683620002c7565b95508019841693508086168417925050509392505050565b6000819050919050565b6000819050919050565b60006200035f6200035962000353846200032a565b62000334565b6200032a565b9050919050565b6000819050919050565b6200037b836200033e565b620003936200038a8262000366565b848454620002d4565b825550505050565b600090565b620003aa6200039b565b620003b781848462000370565b505050565b5b81811015620003df57620003d3600082620003a0565b600181019050620003bd565b5050565b601f8211156200042e57620003f881620002a2565b6200040384620002b7565b8101602085101562000413578190505b6200042b6200042285620002b7565b830182620003bc565b50505b505050565b600082821c905092915050565b6000620004536000198460080262000433565b1980831691505092915050565b60006200046e838362000440565b9150826002028217905092915050565b620004898262000204565b67ffffffffffffffff811115620004a557620004a46200020f565b5b620004b182546200026d565b620004be828285620003e3565b600060209050601f831160018114620004f65760008415620004e1578287015190505b620004ed858262000460565b8655506200055d565b601f1984166200050686620002a2565b60005b82811015620005305784890151825560018201915060208501945060208101905062000509565b868310156200055057848901516200054c601f89168262000440565b8355505b6001600288020188555050505b505050505050565b6137cc80620005756000396000f3fe60806040526004361061019c5760003560e01c806370a08231116100ec578063a22cb4651161008a578063d5abeb0111610064578063d5abeb0114610586578063e985e9c5146105b1578063f0293fd3146105ee578063f2fde38b1461062b5761019c565b8063a22cb465146104f7578063b88d4fde14610520578063c87b56dd146105495761019c565b80638da5cb5b116100c65780638da5cb5b1461045c57806395652cfa1461048757806395d89b41146104b0578063a0712d68146104db5761019c565b806370a08231146103dd578063715018a61461041a57806385d178f4146104315761019c565b80632373ac221161015957806342842e0e1161013357806342842e0e14610321578063453c23101461034a5780636352211e146103755780636817c76c146103b25761019c565b80632373ac22146102c557806323b872dd146102ee5780633ccfd60b146103175761019c565b80630116bc2d146101a157806301ffc9a7146101cc57806306fdde0314610209578063081812fc14610234578063095ea7b31461027157806318160ddd1461029a575b600080fd5b3480156101ad57600080fd5b506101b6610654565b6040516101c3919061214f565b60405180910390f35b3480156101d857600080fd5b506101f360048036038101906101ee91906121d6565b610667565b604051610200919061214f565b60405180910390f35b34801561021557600080fd5b5061021e610749565b60405161022b9190612293565b60405180910390f35b34801561024057600080fd5b5061025b600480360381019061025691906122eb565b6107db565b6040516102689190612359565b60405180910390f35b34801561027d57600080fd5b50610298600480360381019061029391906123a0565b610821565b005b3480156102a657600080fd5b506102af610938565b6040516102bc91906123ef565b60405180910390f35b3480156102d157600080fd5b506102ec60048036038101906102e79190612436565b61093e565b005b3480156102fa57600080fd5b5061031560048036038101906103109190612463565b610963565b005b61031f6109c3565b005b34801561032d57600080fd5b5061034860048036038101906103439190612463565b610a9c565b005b34801561035657600080fd5b5061035f610abc565b60405161036c91906123ef565b60405180910390f35b34801561038157600080fd5b5061039c600480360381019061039791906122eb565b610ac2565b6040516103a99190612359565b60405180910390f35b3480156103be57600080fd5b506103c7610b48565b6040516103d491906123ef565b60405180910390f35b3480156103e957600080fd5b5061040460048036038101906103ff91906124b6565b610b4e565b60405161041191906123ef565b60405180910390f35b34801561042657600080fd5b5061042f610c05565b005b34801561043d57600080fd5b50610446610c19565b6040516104539190612359565b60405180910390f35b34801561046857600080fd5b50610471610c3f565b60405161047e9190612359565b60405180910390f35b34801561049357600080fd5b506104ae60048036038101906104a99190612548565b610c69565b005b3480156104bc57600080fd5b506104c5610c87565b6040516104d29190612293565b60405180910390f35b6104f560048036038101906104f091906122eb565b610d19565b005b34801561050357600080fd5b5061051e60048036038101906105199190612595565b610ef0565b005b34801561052c57600080fd5b5061054760048036038101906105429190612705565b610f06565b005b34801561055557600080fd5b50610570600480360381019061056b91906122eb565b610f68565b60405161057d9190612293565b60405180910390f35b34801561059257600080fd5b5061059b610fe4565b6040516105a891906123ef565b60405180910390f35b3480156105bd57600080fd5b506105d860048036038101906105d39190612788565b610fea565b6040516105e5919061214f565b60405180910390f35b3480156105fa57600080fd5b50610615600480360381019061061091906124b6565b61107e565b60405161062291906123ef565b60405180910390f35b34801561063757600080fd5b50610652600480360381019061064d91906124b6565b611096565b005b600b60009054906101000a900460ff1681565b60007f80ac58cd000000000000000000000000000000000000000000000000000000007bffffffffffffffffffffffffffffffffffffffffffffffffffffffff1916827bffffffffffffffffffffffffffffffffffffffffffffffffffffffff1916148061073257507f5b5e139f000000000000000000000000000000000000000000000000000000007bffffffffffffffffffffffffffffffffffffffffffffffffffffffff1916827bffffffffffffffffffffffffffffffffffffffffffffffffffffffff1916145b80610742575061074182611119565b5b9050919050565b606060008054610758906127f7565b80601f0160208091040260200160405190810160405280929190818152602001828054610784906127f7565b80156107d15780601f106107a6576101008083540402835291602001916107d1565b820191906000526020600020905b8154815290600101906020018083116107b457829003601f168201915b5050505050905090565b60006107e682611183565b6004600083815260200190815260200160002060009054906101000a900473ffffffffffffffffffffffffffffffffffffffff169050919050565b600061082c82610ac2565b90508073ffffffffffffffffffffffffffffffffffffffff168373ffffffffffffffffffffffffffffffffffffffff160361089c576040517f08c379a00000000000000000000000000000000000000000000000000000000081526004016108939061289a565b60405180910390fd5b8073ffffffffffffffffffffffffffffffffffffffff166108bb6111ce565b73ffffffffffffffffffffffffffffffffffffffff1614806108ea57506108e9816108e46111ce565b610fea565b5b610929576040517f08c379a00000000000000000000000000000000000000000000000000000000081526004016109209061292c565b60405180910390fd5b61093383836111d6565b505050565b60085481565b61094661128f565b80600b60006101000a81548160ff02191690831515021790555050565b61097461096e6111ce565b8261130d565b6109b3576040517f08c379a00000000000000000000000000000000000000000000000000000000081526004016109aa906129be565b60405180910390fd5b6109be8383836113a2565b505050565b6109cb61128f565b6000600d60009054906101000a900473ffffffffffffffffffffffffffffffffffffffff1673ffffffffffffffffffffffffffffffffffffffff1647604051610a1390612a0f565b60006040518083038185875af1925050503d8060008114610a50576040519150601f19603f3d011682016040523d82523d6000602084013e610a55565b606091505b5050905080610a99576040517f08c379a0000000000000000000000000000000000000000000000000000000008152600401610a9090612a70565b60405180910390fd5b50565b610ab783838360405180602001604052806000815250610f06565b505050565b600a5481565b600080610ace8361169b565b9050600073ffffffffffffffffffffffffffffffffffffffff168173ffffffffffffffffffffffffffffffffffffffff1603610b3f576040517f08c379a0000000000000000000000000000000000000000000000000000000008152600401610b3690612adc565b60405180910390fd5b80915050919050565b60075481565b60008073ffffffffffffffffffffffffffffffffffffffff168273ffffffffffffffffffffffffffffffffffffffff1603610bbe576040517f08c379a0000000000000000000000000000000000000000000000000000000008152600401610bb590612b6e565b60405180910390fd5b600360008373ffffffffffffffffffffffffffffffffffffffff1673ffffffffffffffffffffffffffffffffffffffff168152602001908152602001600020549050919050565b610c0d61128f565b610c1760006116d8565b565b600d60009054906101000a900473ffffffffffffffffffffffffffffffffffffffff1681565b6000600660009054906101000a900473ffffffffffffffffffffffffffffffffffffffff16905090565b610c7161128f565b8181600c9182610c82929190612d45565b505050565b606060018054610c96906127f7565b80601f0160208091040260200160405190810160405280929190818152602001828054610cc2906127f7565b8015610d0f5780601f10610ce457610100808354040283529160200191610d0f565b820191906000526020600020905b815481529060010190602001808311610cf257829003601f168201915b5050505050905090565b600b60009054906101000a900460ff16610d68576040517f08c379a0000000000000000000000000000000000000000000000000000000008152600401610d5f90612e61565b60405180910390fd5b60075481610d769190612eb0565b3414610db7576040517f08c379a0000000000000000000000000000000000000000000000000000000008152600401610dae90612f3e565b60405180910390fd5b60095481600854610dc89190612f5e565b1115610e09576040517f08c379a0000000000000000000000000000000000000000000000000000000008152600401610e0090612fde565b60405180910390fd5b600a5481600e60003373ffffffffffffffffffffffffffffffffffffffff1673ffffffffffffffffffffffffffffffffffffffff16815260200190815260200160002054610e579190612f5e565b1115610e98576040517f08c379a0000000000000000000000000000000000000000000000000000000008152600401610e8f9061304a565b60405180910390fd5b60005b81811015610eec5760006001600854610eb49190612f5e565b905060086000815480929190610ec99061306a565b9190505550610ed8338261179e565b508080610ee49061306a565b915050610e9b565b5050565b610f02610efb6111ce565b83836117bc565b5050565b610f17610f116111ce565b8361130d565b610f56576040517f08c379a0000000000000000000000000000000000000000000000000000000008152600401610f4d906129be565b60405180910390fd5b610f6284848484611928565b50505050565b6060610f7382611984565b610fb2576040517f08c379a0000000000000000000000000000000000000000000000000000000008152600401610fa9906130fe565b60405180910390fd5b600c610fbd836119c5565b604051602001610fce929190613229565b6040516020818303038152906040529050919050565b60095481565b6000600560008473ffffffffffffffffffffffffffffffffffffffff1673ffffffffffffffffffffffffffffffffffffffff16815260200190815260200160002060008373ffffffffffffffffffffffffffffffffffffffff1673ffffffffffffffffffffffffffffffffffffffff16815260200190815260200160002060009054906101000a900460ff16905092915050565b600e6020528060005260406000206000915090505481565b61109e61128f565b600073ffffffffffffffffffffffffffffffffffffffff168173ffffffffffffffffffffffffffffffffffffffff160361110d576040517f08c379a0000000000000000000000000000000000000000000000000000000008152600401611104906132ca565b60405180910390fd5b611116816116d8565b50565b60007f01ffc9a7000000000000000000000000000000000000000000000000000000007bffffffffffffffffffffffffffffffffffffffffffffffffffffffff1916827bffffffffffffffffffffffffffffffffffffffffffffffffffffffff1916149050919050565b61118c81611984565b6111cb576040517f08c379a00000000000000000000000000000000000000000000000000000000081526004016111c290612adc565b60405180910390fd5b50565b600033905090565b816004600083815260200190815260200160002060006101000a81548173ffffffffffffffffffffffffffffffffffffffff021916908373ffffffffffffffffffffffffffffffffffffffff160217905550808273ffffffffffffffffffffffffffffffffffffffff1661124983610ac2565b73ffffffffffffffffffffffffffffffffffffffff167f8c5be1e5ebec7d5bd14f71427d1e84f3dd0314c0f7b2291e5b200ac8c7c3b92560405160405180910390a45050565b6112976111ce565b73ffffffffffffffffffffffffffffffffffffffff166112b5610c3f565b73ffffffffffffffffffffffffffffffffffffffff161461130b576040517f08c379a000000000000000000000000000000000000000000000000000000000815260040161130290613336565b60405180910390fd5b565b60008061131983610ac2565b90508073ffffffffffffffffffffffffffffffffffffffff168473ffffffffffffffffffffffffffffffffffffffff16148061135b575061135a8185610fea565b5b8061139957508373ffffffffffffffffffffffffffffffffffffffff16611381846107db565b73ffffffffffffffffffffffffffffffffffffffff16145b91505092915050565b8273ffffffffffffffffffffffffffffffffffffffff166113c282610ac2565b73ffffffffffffffffffffffffffffffffffffffff1614611418576040517f08c379a000000000000000000000000000000000000000000000000000000000815260040161140f906133c8565b60405180910390fd5b600073ffffffffffffffffffffffffffffffffffffffff168273ffffffffffffffffffffffffffffffffffffffff1603611487576040517f08c379a000000000000000000000000000000000000000000000000000000000815260040161147e9061345a565b60405180910390fd5b6114948383836001611a93565b8273ffffffffffffffffffffffffffffffffffffffff166114b482610ac2565b73ffffffffffffffffffffffffffffffffffffffff161461150a576040517f08c379a0000000000000000000000000000000000000000000000000000000008152600401611501906133c8565b60405180910390fd5b6004600082815260200190815260200160002060006101000a81549073ffffffffffffffffffffffffffffffffffffffff02191690556001600360008573ffffffffffffffffffffffffffffffffffffffff1673ffffffffffffffffffffffffffffffffffffffff168152602001908152602001600020600082825403925050819055506001600360008473ffffffffffffffffffffffffffffffffffffffff1673ffffffffffffffffffffffffffffffffffffffff16815260200190815260200160002060008282540192505081905550816002600083815260200190815260200160002060006101000a81548173ffffffffffffffffffffffffffffffffffffffff021916908373ffffffffffffffffffffffffffffffffffffffff160217905550808273ffffffffffffffffffffffffffffffffffffffff168473ffffffffffffffffffffffffffffffffffffffff167fddf252ad1be2c89b69c2b068fc378daa952ba7f163c4a11628f55a4df523b3ef60405160405180910390a46116968383836001611bb9565b505050565b60006002600083815260200190815260200160002060009054906101000a900473ffffffffffffffffffffffffffffffffffffffff169050919050565b6000600660009054906101000a900473ffffffffffffffffffffffffffffffffffffffff16905081600660006101000a81548173ffffffffffffffffffffffffffffffffffffffff021916908373ffffffffffffffffffffffffffffffffffffffff1602179055508173ffffffffffffffffffffffffffffffffffffffff168173ffffffffffffffffffffffffffffffffffffffff167f8be0079c531659141344cd1fd0a4f28419497f9722a3daafe3b4186f6b6457e060405160405180910390a35050565b6117b8828260405180602001604052806000815250611bbf565b5050565b8173ffffffffffffffffffffffffffffffffffffffff168373ffffffffffffffffffffffffffffffffffffffff160361182a576040517f08c379a0000000000000000000000000000000000000000000000000000000008152600401611821906134c6565b60405180910390fd5b80600560008573ffffffffffffffffffffffffffffffffffffffff1673ffffffffffffffffffffffffffffffffffffffff16815260200190815260200160002060008473ffffffffffffffffffffffffffffffffffffffff1673ffffffffffffffffffffffffffffffffffffffff16815260200190815260200160002060006101000a81548160ff0219169083151502179055508173ffffffffffffffffffffffffffffffffffffffff168373ffffffffffffffffffffffffffffffffffffffff167f17307eab39ab6107e8899845ad3d59bd9653f200f220920489ca2b5937696c318360405161191b919061214f565b60405180910390a3505050565b6119338484846113a2565b61193f84848484611c1a565b61197e576040517f08c379a000000000000000000000000000000000000000000000000000000000815260040161197590613558565b60405180910390fd5b50505050565b60008073ffffffffffffffffffffffffffffffffffffffff166119a68361169b565b73ffffffffffffffffffffffffffffffffffffffff1614159050919050565b6060600060016119d484611da1565b01905060008167ffffffffffffffff8111156119f3576119f26125da565b5b6040519080825280601f01601f191660200182016040528015611a255781602001600182028036833780820191505090505b509050600082602001820190505b600115611a88578080600190039150507f3031323334353637383961626364656600000000000000000000000000000000600a86061a8153600a8581611a7c57611a7b613578565b5b04945060008503611a33575b819350505050919050565b6001811115611bb357600073ffffffffffffffffffffffffffffffffffffffff168473ffffffffffffffffffffffffffffffffffffffff1614611b275780600360008673ffffffffffffffffffffffffffffffffffffffff1673ffffffffffffffffffffffffffffffffffffffff1681526020019081526020016000206000828254611b1f91906135a7565b925050819055505b600073ffffffffffffffffffffffffffffffffffffffff168373ffffffffffffffffffffffffffffffffffffffff1614611bb25780600360008573ffffffffffffffffffffffffffffffffffffffff1673ffffffffffffffffffffffffffffffffffffffff1681526020019081526020016000206000828254611baa9190612f5e565b925050819055505b5b50505050565b50505050565b611bc98383611ef4565b611bd66000848484611c1a565b611c15576040517f08c379a0000000000000000000000000000000000000000000000000000000008152600401611c0c90613558565b60405180910390fd5b505050565b6000611c3b8473ffffffffffffffffffffffffffffffffffffffff16612111565b15611d94578373ffffffffffffffffffffffffffffffffffffffff1663150b7a02611c646111ce565b8786866040518563ffffffff1660e01b8152600401611c869493929190613630565b6020604051808303816000875af1925050508015611cc257506040513d601f19601f82011682018060405250810190611cbf9190613691565b60015b611d44573d8060008114611cf2576040519150601f19603f3d011682016040523d82523d6000602084013e611cf7565b606091505b506000815103611d3c576040517f08c379a0000000000000000000000000000000000000000000000000000000008152600401611d3390613558565b60405180910390fd5b805181602001fd5b63150b7a0260e01b7bffffffffffffffffffffffffffffffffffffffffffffffffffffffff1916817bffffffffffffffffffffffffffffffffffffffffffffffffffffffff191614915050611d99565b600190505b949350505050565b600080600090507a184f03e93ff9f4daa797ed6e38ed64bf6a1f0100000000000000008310611dff577a184f03e93ff9f4daa797ed6e38ed64bf6a1f0100000000000000008381611df557611df4613578565b5b0492506040810190505b6d04ee2d6d415b85acef81000000008310611e3c576d04ee2d6d415b85acef81000000008381611e3257611e31613578565b5b0492506020810190505b662386f26fc100008310611e6b57662386f26fc100008381611e6157611e60613578565b5b0492506010810190505b6305f5e1008310611e94576305f5e1008381611e8a57611e89613578565b5b0492506008810190505b6127108310611eb9576127108381611eaf57611eae613578565b5b0492506004810190505b60648310611edc5760648381611ed257611ed1613578565b5b0492506002810190505b600a8310611eeb576001810190505b80915050919050565b600073ffffffffffffffffffffffffffffffffffffffff168273ffffffffffffffffffffffffffffffffffffffff1603611f63576040517f08c379a0000000000000000000000000000000000000000000000000000000008152600401611f5a9061370a565b60405180910390fd5b611f6c81611984565b15611fac576040517f08c379a0000000000000000000000000000000000000000000000000000000008152600401611fa390613776565b60405180910390fd5b611fba600083836001611a93565b611fc381611984565b15612003576040517f08c379a0000000000000000000000000000000000000000000000000000000008152600401611ffa90613776565b60405180910390fd5b6001600360008473ffffffffffffffffffffffffffffffffffffffff1673ffffffffffffffffffffffffffffffffffffffff16815260200190815260200160002060008282540192505081905550816002600083815260200190815260200160002060006101000a81548173ffffffffffffffffffffffffffffffffffffffff021916908373ffffffffffffffffffffffffffffffffffffffff160217905550808273ffffffffffffffffffffffffffffffffffffffff16600073ffffffffffffffffffffffffffffffffffffffff167fddf252ad1be2c89b69c2b068fc378daa952ba7f163c4a11628f55a4df523b3ef60405160405180910390a461210d600083836001611bb9565b5050565b6000808273ffffffffffffffffffffffffffffffffffffffff163b119050919050565b60008115159050919050565b61214981612134565b82525050565b60006020820190506121646000830184612140565b92915050565b6000604051905090565b600080fd5b600080fd5b60007fffffffff0000000000000000000000000000000000000000000000000000000082169050919050565b6121b38161217e565b81146121be57600080fd5b50565b6000813590506121d0816121aa565b92915050565b6000602082840312156121ec576121eb612174565b5b60006121fa848285016121c1565b91505092915050565b600081519050919050565b600082825260208201905092915050565b60005b8381101561223d578082015181840152602081019050612222565b60008484015250505050565b6000601f19601f8301169050919050565b600061226582612203565b61226f818561220e565b935061227f81856020860161221f565b61228881612249565b840191505092915050565b600060208201905081810360008301526122ad818461225a565b905092915050565b6000819050919050565b6122c8816122b5565b81146122d357600080fd5b50565b6000813590506122e5816122bf565b92915050565b60006020828403121561230157612300612174565b5b600061230f848285016122d6565b91505092915050565b600073ffffffffffffffffffffffffffffffffffffffff82169050919050565b600061234382612318565b9050919050565b61235381612338565b82525050565b600060208201905061236e600083018461234a565b92915050565b61237d81612338565b811461238857600080fd5b50565b60008135905061239a81612374565b92915050565b600080604083850312156123b7576123b6612174565b5b60006123c58582860161238b565b92505060206123d6858286016122d6565b9150509250929050565b6123e9816122b5565b82525050565b600060208201905061240460008301846123e0565b92915050565b61241381612134565b811461241e57600080fd5b50565b6000813590506124308161240a565b92915050565b60006020828403121561244c5761244b612174565b5b600061245a84828501612421565b91505092915050565b60008060006060848603121561247c5761247b612174565b5b600061248a8682870161238b565b935050602061249b8682870161238b565b92505060406124ac868287016122d6565b9150509250925092565b6000602082840312156124cc576124cb612174565b5b60006124da8482850161238b565b91505092915050565b600080fd5b600080fd5b600080fd5b60008083601f840112612508576125076124e3565b5b8235905067ffffffffffffffff811115612525576125246124e8565b5b602083019150836001820283011115612541576125406124ed565b5b9250929050565b6000806020838503121561255f5761255e612174565b5b600083013567ffffffffffffffff81111561257d5761257c612179565b5b612589858286016124f2565b92509250509250929050565b600080604083850312156125ac576125ab612174565b5b60006125ba8582860161238b565b92505060206125cb85828601612421565b9150509250929050565b600080fd5b7f4e487b7100000000000000000000000000000000000000000000000000000000600052604160045260246000fd5b61261282612249565b810181811067ffffffffffffffff82111715612631576126306125da565b5b80604052505050565b600061264461216a565b90506126508282612609565b919050565b600067ffffffffffffffff8211156126705761266f6125da565b5b61267982612249565b9050602081019050919050565b82818337600083830152505050565b60006126a86126a384612655565b61263a565b9050828152602081018484840111156126c4576126c36125d5565b5b6126cf848285612686565b509392505050565b600082601f8301126126ec576126eb6124e3565b5b81356126fc848260208601612695565b91505092915050565b6000806000806080858703121561271f5761271e612174565b5b600061272d8782880161238b565b945050602061273e8782880161238b565b935050604061274f878288016122d6565b925050606085013567ffffffffffffffff8111156127705761276f612179565b5b61277c878288016126d7565b91505092959194509250565b6000806040838503121561279f5761279e612174565b5b60006127ad8582860161238b565b92505060206127be8582860161238b565b9150509250929050565b7f4e487b7100000000000000000000000000000000000000000000000000000000600052602260045260246000fd5b6000600282049050600182168061280f57607f821691505b602082108103612822576128216127c8565b5b50919050565b7f4552433732313a20617070726f76616c20746f2063757272656e74206f776e6560008201527f7200000000000000000000000000000000000000000000000000000000000000602082015250565b600061288460218361220e565b915061288f82612828565b604082019050919050565b600060208201905081810360008301526128b381612877565b9050919050565b7f4552433732313a20617070726f76652063616c6c6572206973206e6f7420746f60008201527f6b656e206f776e6572206f7220617070726f76656420666f7220616c6c000000602082015250565b6000612916603d8361220e565b9150612921826128ba565b604082019050919050565b6000602082019050818103600083015261294581612909565b9050919050565b7f4552433732313a2063616c6c6572206973206e6f7420746f6b656e206f776e6560008201527f72206f7220617070726f76656400000000000000000000000000000000000000602082015250565b60006129a8602d8361220e565b91506129b38261294c565b604082019050919050565b600060208201905081810360008301526129d78161299b565b9050919050565b600081905092915050565b50565b60006129f96000836129de565b9150612a04826129e9565b600082019050919050565b6000612a1a826129ec565b9150819050919050565b7f7769746864726177206661696c65640000000000000000000000000000000000600082015250565b6000612a5a600f8361220e565b9150612a6582612a24565b602082019050919050565b60006020820190508181036000830152612a8981612a4d565b9050919050565b7f4552433732313a20696e76616c696420746f6b656e2049440000000000000000600082015250565b6000612ac660188361220e565b9150612ad182612a90565b602082019050919050565b60006020820190508181036000830152612af581612ab9565b9050919050565b7f4552433732313a2061646472657373207a65726f206973206e6f74206120766160008201527f6c6964206f776e65720000000000000000000000000000000000000000000000602082015250565b6000612b5860298361220e565b9150612b6382612afc565b604082019050919050565b60006020820190508181036000830152612b8781612b4b565b9050919050565b600082905092915050565b60008190508160005260206000209050919050565b60006020601f8301049050919050565b600082821b905092915050565b600060088302612bfb7fffffffffffffffffffffffffffffffffffffffffffffffffffffffffffffffff82612bbe565b612c058683612bbe565b95508019841693508086168417925050509392505050565b6000819050919050565b6000612c42612c3d612c38846122b5565b612c1d565b6122b5565b9050919050565b6000819050919050565b612c5c83612c27565b612c70612c6882612c49565b848454612bcb565b825550505050565b600090565b612c85612c78565b612c90818484612c53565b505050565b5b81811015612cb457612ca9600082612c7d565b600181019050612c96565b5050565b601f821115612cf957612cca81612b99565b612cd384612bae565b81016020851015612ce2578190505b612cf6612cee85612bae565b830182612c95565b50505b505050565b600082821c905092915050565b6000612d1c60001984600802612cfe565b1980831691505092915050565b6000612d358383612d0b565b9150826002028217905092915050565b612d4f8383612b8e565b67ffffffffffffffff811115612d6857612d676125da565b5b612d7282546127f7565b612d7d828285612cb8565b6000601f831160018114612dac5760008415612d9a578287013590505b612da48582612d29565b865550612e0c565b601f198416612dba86612b99565b60005b82811015612de257848901358255600182019150602085019450602081019050612dbd565b86831015612dff5784890135612dfb601f891682612d0b565b8355505b6001600288020188555050505b50505050505050565b7f4d696e74696e67206e6f7420656e61626c656400000000000000000000000000600082015250565b6000612e4b60138361220e565b9150612e5682612e15565b602082019050919050565b60006020820190508181036000830152612e7a81612e3e565b9050919050565b7f4e487b7100000000000000000000000000000000000000000000000000000000600052601160045260246000fd5b6000612ebb826122b5565b9150612ec6836122b5565b9250828202612ed4816122b5565b91508282048414831517612eeb57612eea612e81565b5b5092915050565b7f57726f6e67206d696e742076616c756500000000000000000000000000000000600082015250565b6000612f2860108361220e565b9150612f3382612ef2565b602082019050919050565b60006020820190508181036000830152612f5781612f1b565b9050919050565b6000612f69826122b5565b9150612f74836122b5565b9250828201905080821115612f8c57612f8b612e81565b5b92915050565b7f536f6c64206f7574000000000000000000000000000000000000000000000000600082015250565b6000612fc860088361220e565b9150612fd382612f92565b602082019050919050565b60006020820190508181036000830152612ff781612fbb565b9050919050565b7f4578636565646564206d61782077616c6c657400000000000000000000000000600082015250565b600061303460138361220e565b915061303f82612ffe565b602082019050919050565b6000602082019050818103600083015261306381613027565b9050919050565b6000613075826122b5565b91507fffffffffffffffffffffffffffffffffffffffffffffffffffffffffffffffff82036130a7576130a6612e81565b5b600182019050919050565b7f546f6b656e20646f6573206e6f74206578697374210000000000000000000000600082015250565b60006130e860158361220e565b91506130f3826130b2565b602082019050919050565b60006020820190508181036000830152613117816130db565b9050919050565b600081905092915050565b60008154613136816127f7565b613140818661311e565b9450600182166000811461315b5760018114613170576131a3565b60ff19831686528115158202860193506131a3565b61317985612b99565b60005b8381101561319b5781548189015260018201915060208101905061317c565b838801955050505b50505092915050565b60006131b782612203565b6131c1818561311e565b93506131d181856020860161221f565b80840191505092915050565b7f2e6a736f6e000000000000000000000000000000000000000000000000000000600082015250565b600061321360058361311e565b915061321e826131dd565b600582019050919050565b60006132358285613129565b915061324182846131ac565b915061324c82613206565b91508190509392505050565b7f4f776e61626c653a206e6577206f776e657220697320746865207a65726f206160008201527f6464726573730000000000000000000000000000000000000000000000000000602082015250565b60006132b460268361220e565b91506132bf82613258565b604082019050919050565b600060208201905081810360008301526132e3816132a7565b9050919050565b7f4f776e61626c653a2063616c6c6572206973206e6f7420746865206f776e6572600082015250565b600061332060208361220e565b915061332b826132ea565b602082019050919050565b6000602082019050818103600083015261334f81613313565b9050919050565b7f4552433732313a207472616e736665722066726f6d20696e636f72726563742060008201527f6f776e6572000000000000000000000000000000000000000000000000000000602082015250565b60006133b260258361220e565b91506133bd82613356565b604082019050919050565b600060208201905081810360008301526133e1816133a5565b9050919050565b7f4552433732313a207472616e7366657220746f20746865207a65726f2061646460008201527f7265737300000000000000000000000000000000000000000000000000000000602082015250565b600061344460248361220e565b915061344f826133e8565b604082019050919050565b6000602082019050818103600083015261347381613437565b9050919050565b7f4552433732313a20617070726f766520746f2063616c6c657200000000000000600082015250565b60006134b060198361220e565b91506134bb8261347a565b602082019050919050565b600060208201905081810360008301526134df816134a3565b9050919050565b7f4552433732313a207472616e7366657220746f206e6f6e20455243373231526560008201527f63656976657220696d706c656d656e7465720000000000000000000000000000602082015250565b600061354260328361220e565b915061354d826134e6565b604082019050919050565b6000602082019050818103600083015261357181613535565b9050919050565b7f4e487b7100000000000000000000000000000000000000000000000000000000600052601260045260246000fd5b60006135b2826122b5565b91506135bd836122b5565b92508282039050818111156135d5576135d4612e81565b5b92915050565b600081519050919050565b600082825260208201905092915050565b6000613602826135db565b61360c81856135e6565b935061361c81856020860161221f565b61362581612249565b840191505092915050565b6000608082019050613645600083018761234a565b613652602083018661234a565b61365f60408301856123e0565b818103606083015261367181846135f7565b905095945050505050565b60008151905061368b816121aa565b92915050565b6000602082840312156136a7576136a6612174565b5b60006136b58482850161367c565b91505092915050565b7f4552433732313a206d696e7420746f20746865207a65726f2061646472657373600082015250565b60006136f460208361220e565b91506136ff826136be565b602082019050919050565b60006020820190508181036000830152613723816136e7565b9050919050565b7f4552433732313a20746f6b656e20616c7265616479206d696e74656400000000600082015250565b6000613760601c8361220e565b915061376b8261372a565b602082019050919050565b6000602082019050818103600083015261378f81613753565b905091905056fea2646970667358221220d7e3d9ba7edd6079bde1a5c11e5b27a2f0b6c930159101b0ebdfa17ecbdbcc7564736f6c63430008110033",
    "linkReferences": {},
    "deployedLinkReferences": {}
}