{
    "_format": "hh-sol-artifact-1",
    "contractName": "AfbelardiPhotoNFT",
    "sourceName": "contracts/AfbelardiPhotoNFT.sol",
    "abi": [
        {
            "inputs": [],
            "stateMutability": "payable",
            "type": "constructor"
        },
        {
            "anonymous": false,
            "inputs": [
                {
                    "indexed": true,
                    "internalType": "address",
                    "name": "owner",
                    "type": "address"
                },
                {
                    "indexed": true,
                    "internalType": "address",
                    "name": "approved",
                    "type": "address"
                },
                {
                    "indexed": true,
                    "internalType": "uint256",
                    "name": "tokenId",
                    "type": "uint256"
                }
            ],
            "name": "Approval",
            "type": "event"
        },
        {
            "anonymous": false,
            "inputs": [
                {
                    "indexed": true,
                    "internalType": "address",
                    "name": "owner",
                    "type": "address"
                },
                {
                    "indexed": true,
                    "internalType": "address",
                    "name": "operator",
                    "type": "address"
                },
                {
                    "indexed": false,
                    "internalType": "bool",
                    "name": "approved",
                    "type": "bool"
                }
            ],
            "name": "ApprovalForAll",
            "type": "event"
        },
        {
            "anonymous": false,
            "inputs": [
                {
                    "indexed": true,
                    "internalType": "address",
                    "name": "previousOwner",
                    "type": "address"
                },
                {
                    "indexed": true,
                    "internalType": "address",
                    "name": "newOwner",
                    "type": "address"
                }
            ],
            "name": "OwnershipTransferred",
            "type": "event"
        },
        {
            "anonymous": false,
            "inputs": [
                {
                    "indexed": true,
                    "internalType": "address",
                    "name": "from",
                    "type": "address"
                },
                {
                    "indexed": true,
                    "internalType": "address",
                    "name": "to",
                    "type": "address"
                },
                {
                    "indexed": true,
                    "internalType": "uint256",
                    "name": "tokenId",
                    "type": "uint256"
                }
            ],
            "name": "Transfer",
            "type": "event"
        },
        {
            "inputs": [
                {
                    "internalType": "address",
                    "name": "to",
                    "type": "address"
                },
                {
                    "internalType": "uint256",
                    "name": "tokenId",
                    "type": "uint256"
                }
            ],
            "name": "approve",
            "outputs": [],
            "stateMutability": "nonpayable",
            "type": "function"
        },
        {
            "inputs": [
                {
                    "internalType": "address",
                    "name": "owner",
                    "type": "address"
                }
            ],
            "name": "balanceOf",
            "outputs": [
                {
                    "internalType": "uint256",
                    "name": "",
                    "type": "uint256"
                }
            ],
            "stateMutability": "view",
            "type": "function"
        },
        {
            "inputs": [],
            "name": "baseExtension",
            "outputs": [
                {
                    "internalType": "string",
                    "name": "",
                    "type": "string"
                }
            ],
            "stateMutability": "view",
            "type": "function"
        },
        {
            "inputs": [
                {
                    "internalType": "uint256",
                    "name": "tokenId",
                    "type": "uint256"
                }
            ],
            "name": "getApproved",
            "outputs": [
                {
                    "internalType": "address",
                    "name": "",
                    "type": "address"
                }
            ],
            "stateMutability": "view",
            "type": "function"
        },
        {
            "inputs": [
                {
                    "internalType": "address",
                    "name": "owner",
                    "type": "address"
                },
                {
                    "internalType": "address",
                    "name": "operator",
                    "type": "address"
                }
            ],
            "name": "isApprovedForAll",
            "outputs": [
                {
                    "internalType": "bool",
                    "name": "",
                    "type": "bool"
                }
            ],
            "stateMutability": "view",
            "type": "function"
        },
        {
            "inputs": [],
            "name": "isPublicMintEnabled",
            "outputs": [
                {
                    "internalType": "bool",
                    "name": "",
                    "type": "bool"
                }
            ],
            "stateMutability": "view",
            "type": "function"
        },
        {
            "inputs": [
                {
                    "internalType": "address",
                    "name": "",
                    "type": "address"
                }
            ],
            "name": "isWhiteListed",
            "outputs": [
                {
                    "internalType": "bool",
                    "name": "",
                    "type": "bool"
                }
            ],
            "stateMutability": "view",
            "type": "function"
        },
        {
            "inputs": [],
            "name": "maxPerWallet",
            "outputs": [
                {
                    "internalType": "uint256",
                    "name": "",
                    "type": "uint256"
                }
            ],
            "stateMutability": "view",
            "type": "function"
        },
        {
            "inputs": [],
            "name": "maxSupply",
            "outputs": [
                {
                    "internalType": "uint256",
                    "name": "",
                    "type": "uint256"
                }
            ],
            "stateMutability": "view",
            "type": "function"
        },
        {
            "inputs": [
                {
                    "internalType": "uint256",
                    "name": "quantity_",
                    "type": "uint256"
                }
            ],
            "name": "mint",
            "outputs": [],
            "stateMutability": "payable",
            "type": "function"
        },
        {
            "inputs": [],
            "name": "mintPrice",
            "outputs": [
                {
                    "internalType": "uint256",
                    "name": "",
                    "type": "uint256"
                }
            ],
            "stateMutability": "view",
            "type": "function"
        },
        {
            "inputs": [],
            "name": "name",
            "outputs": [
                {
                    "internalType": "string",
                    "name": "",
                    "type": "string"
                }
            ],
            "stateMutability": "view",
            "type": "function"
        },
        {
            "inputs": [],
            "name": "owner",
            "outputs": [
                {
                    "internalType": "address",
                    "name": "",
                    "type": "address"
                }
            ],
            "stateMutability": "view",
            "type": "function"
        },
        {
            "inputs": [
                {
                    "internalType": "uint256",
                    "name": "tokenId",
                    "type": "uint256"
                }
            ],
            "name": "ownerOf",
            "outputs": [
                {
                    "internalType": "address",
                    "name": "",
                    "type": "address"
                }
            ],
            "stateMutability": "view",
            "type": "function"
        },
        {
            "inputs": [],
            "name": "renounceOwnership",
            "outputs": [],
            "stateMutability": "nonpayable",
            "type": "function"
        },
        {
            "inputs": [
                {
                    "internalType": "address",
                    "name": "from",
                    "type": "address"
                },
                {
                    "internalType": "address",
                    "name": "to",
                    "type": "address"
                },
                {
                    "internalType": "uint256",
                    "name": "tokenId",
                    "type": "uint256"
                }
            ],
            "name": "safeTransferFrom",
            "outputs": [],
            "stateMutability": "nonpayable",
            "type": "function"
        },
        {
            "inputs": [
                {
                    "internalType": "address",
                    "name": "from",
                    "type": "address"
                },
                {
                    "internalType": "address",
                    "name": "to",
                    "type": "address"
                },
                {
                    "internalType": "uint256",
                    "name": "tokenId",
                    "type": "uint256"
                },
                {
                    "internalType": "bytes",
                    "name": "data",
                    "type": "bytes"
                }
            ],
            "name": "safeTransferFrom",
            "outputs": [],
            "stateMutability": "nonpayable",
            "type": "function"
        },
        {
            "inputs": [
                {
                    "internalType": "address",
                    "name": "operator",
                    "type": "address"
                },
                {
                    "internalType": "bool",
                    "name": "approved",
                    "type": "bool"
                }
            ],
            "name": "setApprovalForAll",
            "outputs": [],
            "stateMutability": "nonpayable",
            "type": "function"
        },
        {
            "inputs": [
                {
                    "internalType": "string",
                    "name": "baseTokenUri_",
                    "type": "string"
                },
                {
                    "internalType": "string",
                    "name": "baseExtension_",
                    "type": "string"
                }
            ],
            "name": "setBaseTokenUri",
            "outputs": [],
            "stateMutability": "nonpayable",
            "type": "function"
        },
        {
            "inputs": [
                {
                    "internalType": "bool",
                    "name": "isPublicMintEnabled_",
                    "type": "bool"
                }
            ],
            "name": "setIsPublicMintEnabled",
            "outputs": [],
            "stateMutability": "nonpayable",
            "type": "function"
        },
        {
            "inputs": [
                {
                    "internalType": "bytes4",
                    "name": "interfaceId",
                    "type": "bytes4"
                }
            ],
            "name": "supportsInterface",
            "outputs": [
                {
                    "internalType": "bool",
                    "name": "",
                    "type": "bool"
                }
            ],
            "stateMutability": "view",
            "type": "function"
        },
        {
            "inputs": [],
            "name": "symbol",
            "outputs": [
                {
                    "internalType": "string",
                    "name": "",
                    "type": "string"
                }
            ],
            "stateMutability": "view",
            "type": "function"
        },
        {
            "inputs": [
                {
                    "internalType": "uint256",
                    "name": "tokenId_",
                    "type": "uint256"
                }
            ],
            "name": "tokenURI",
            "outputs": [
                {
                    "internalType": "string",
                    "name": "",
                    "type": "string"
                }
            ],
            "stateMutability": "view",
            "type": "function"
        },
        {
            "inputs": [],
            "name": "totalSupply",
            "outputs": [
                {
                    "internalType": "uint256",
                    "name": "",
                    "type": "uint256"
                }
            ],
            "stateMutability": "view",
            "type": "function"
        },
        {
            "inputs": [
                {
                    "internalType": "address",
                    "name": "from",
                    "type": "address"
                },
                {
                    "internalType": "address",
                    "name": "to",
                    "type": "address"
                },
                {
                    "internalType": "uint256",
                    "name": "tokenId",
                    "type": "uint256"
                }
            ],
            "name": "transferFrom",
            "outputs": [],
            "stateMutability": "nonpayable",
            "type": "function"
        },
        {
            "inputs": [
                {
                    "internalType": "address",
                    "name": "newOwner",
                    "type": "address"
                }
            ],
            "name": "transferOwnership",
            "outputs": [],
            "stateMutability": "nonpayable",
            "type": "function"
        },
        {
            "inputs": [
                {
                    "internalType": "address",
                    "name": "",
                    "type": "address"
                }
            ],
            "name": "walletMints",
            "outputs": [
                {
                    "internalType": "uint256",
                    "name": "",
                    "type": "uint256"
                }
            ],
            "stateMutability": "view",
            "type": "function"
        },
        {
            "inputs": [],
            "name": "withdraw",
            "outputs": [],
            "stateMutability": "payable",
            "type": "function"
        },
        {
            "inputs": [],
            "name": "withdrawWallet",
            "outputs": [
                {
                    "internalType": "address",
                    "name": "",
                    "type": "address"
                }
            ],
            "stateMutability": "view",
            "type": "function"
        }
    ],
    "bytecode": "0x60806040526040518060400160405280601181526020017f416662656c6172646950686f746f4e46540000000000000000000000000000008152506040518060400160405280600381526020017f414642000000000000000000000000000000000000000000000000000000000081525081600090816200008191906200047e565b5080600190816200009391906200047e565b505050620000b6620000aa6200013660201b60201c565b6200013e60201b60201c565b66470de4df8200006007819055506000600881905550600980819055506003600a8190555073f72cb599deb8f2cb5768b6cd94a295c299bd612f600e60006101000a81548173ffffffffffffffffffffffffffffffffffffffff021916908373ffffffffffffffffffffffffffffffffffffffff16021790555062000565565b600033905090565b6000600660009054906101000a900473ffffffffffffffffffffffffffffffffffffffff16905081600660006101000a81548173ffffffffffffffffffffffffffffffffffffffff021916908373ffffffffffffffffffffffffffffffffffffffff1602179055508173ffffffffffffffffffffffffffffffffffffffff168173ffffffffffffffffffffffffffffffffffffffff167f8be0079c531659141344cd1fd0a4f28419497f9722a3daafe3b4186f6b6457e060405160405180910390a35050565b600081519050919050565b7f4e487b7100000000000000000000000000000000000000000000000000000000600052604160045260246000fd5b7f4e487b7100000000000000000000000000000000000000000000000000000000600052602260045260246000fd5b600060028204905060018216806200028657607f821691505b6020821081036200029c576200029b6200023e565b5b50919050565b60008190508160005260206000209050919050565b60006020601f8301049050919050565b600082821b905092915050565b600060088302620003067fffffffffffffffffffffffffffffffffffffffffffffffffffffffffffffffff82620002c7565b620003128683620002c7565b95508019841693508086168417925050509392505050565b6000819050919050565b6000819050919050565b60006200035f6200035962000353846200032a565b62000334565b6200032a565b9050919050565b6000819050919050565b6200037b836200033e565b620003936200038a8262000366565b848454620002d4565b825550505050565b600090565b620003aa6200039b565b620003b781848462000370565b505050565b5b81811015620003df57620003d3600082620003a0565b600181019050620003bd565b5050565b601f8211156200042e57620003f881620002a2565b6200040384620002b7565b8101602085101562000413578190505b6200042b6200042285620002b7565b830182620003bc565b50505b505050565b600082821c905092915050565b6000620004536000198460080262000433565b1980831691505092915050565b60006200046e838362000440565b9150826002028217905092915050565b620004898262000204565b67ffffffffffffffff811115620004a557620004a46200020f565b5b620004b182546200026d565b620004be828285620003e3565b600060209050601f831160018114620004f65760008415620004e1578287015190505b620004ed858262000460565b8655506200055d565b601f1984166200050686620002a2565b60005b82811015620005305784890151825560018201915060208501945060208101905062000509565b868310156200055057848901516200054c601f89168262000440565b8355505b6001600288020188555050505b505050505050565b61399680620005756000396000f3fe6080604052600436106101c25760003560e01c806370a08231116100f7578063a22cb46511610095578063d5abeb0111610064578063d5abeb0114610614578063e985e9c51461063f578063f0293fd31461067c578063f2fde38b146106b9576101c2565b8063a22cb4651461055a578063b88d4fde14610583578063c6682862146105ac578063c87b56dd146105d7576101c2565b80638da5cb5b116100d15780638da5cb5b146104bf57806391c79205146104ea57806395d89b4114610513578063a0712d681461053e576101c2565b806370a0823114610440578063715018a61461047d57806385d178f414610494576101c2565b806323b872dd11610164578063453c23101161013e578063453c2310146103705780636352211e1461039b5780636817c76c146103d85780636f9170f614610403576101c2565b806323b872dd146103145780633ccfd60b1461033d57806342842e0e14610347576101c2565b8063081812fc116101a0578063081812fc1461025a578063095ea7b31461029757806318160ddd146102c05780632373ac22146102eb576101c2565b80630116bc2d146101c757806301ffc9a7146101f257806306fdde031461022f575b600080fd5b3480156101d357600080fd5b506101dc6106e2565b6040516101e991906122c3565b60405180910390f35b3480156101fe57600080fd5b506102196004803603810190610214919061234a565b6106f5565b60405161022691906122c3565b60405180910390f35b34801561023b57600080fd5b506102446107d7565b6040516102519190612407565b60405180910390f35b34801561026657600080fd5b50610281600480360381019061027c919061245f565b610869565b60405161028e91906124cd565b60405180910390f35b3480156102a357600080fd5b506102be60048036038101906102b99190612514565b6108af565b005b3480156102cc57600080fd5b506102d56109c6565b6040516102e29190612563565b60405180910390f35b3480156102f757600080fd5b50610312600480360381019061030d91906125aa565b6109cc565b005b34801561032057600080fd5b5061033b600480360381019061033691906125d7565b6109f1565b005b610345610a51565b005b34801561035357600080fd5b5061036e600480360381019061036991906125d7565b610b08565b005b34801561037c57600080fd5b50610385610b28565b6040516103929190612563565b60405180910390f35b3480156103a757600080fd5b506103c260048036038101906103bd919061245f565b610b2e565b6040516103cf91906124cd565b60405180910390f35b3480156103e457600080fd5b506103ed610bb4565b6040516103fa9190612563565b60405180910390f35b34801561040f57600080fd5b5061042a6004803603810190610425919061262a565b610bba565b60405161043791906122c3565b60405180910390f35b34801561044c57600080fd5b506104676004803603810190610462919061262a565b610bda565b6040516104749190612563565b60405180910390f35b34801561048957600080fd5b50610492610c91565b005b3480156104a057600080fd5b506104a9610ca5565b6040516104b691906124cd565b60405180910390f35b3480156104cb57600080fd5b506104d4610ccb565b6040516104e191906124cd565b60405180910390f35b3480156104f657600080fd5b50610511600480360381019061050c91906126bc565b610cf5565b005b34801561051f57600080fd5b50610528610d27565b6040516105359190612407565b60405180910390f35b6105586004803603810190610553919061245f565b610db9565b005b34801561056657600080fd5b50610581600480360381019061057c919061273d565b610fd3565b005b34801561058f57600080fd5b506105aa60048036038101906105a591906128ad565b610fe9565b005b3480156105b857600080fd5b506105c161104b565b6040516105ce9190612407565b60405180910390f35b3480156105e357600080fd5b506105fe60048036038101906105f9919061245f565b6110d9565b60405161060b9190612407565b60405180910390f35b34801561062057600080fd5b50610629611158565b6040516106369190612563565b60405180910390f35b34801561064b57600080fd5b5061066660048036038101906106619190612930565b61115e565b60405161067391906122c3565b60405180910390f35b34801561068857600080fd5b506106a3600480360381019061069e919061262a565b6111f2565b6040516106b09190612563565b60405180910390f35b3480156106c557600080fd5b506106e060048036038101906106db919061262a565b61120a565b005b600b60009054906101000a900460ff1681565b60007f80ac58cd000000000000000000000000000000000000000000000000000000007bffffffffffffffffffffffffffffffffffffffffffffffffffffffff1916827bffffffffffffffffffffffffffffffffffffffffffffffffffffffff191614806107c057507f5b5e139f000000000000000000000000000000000000000000000000000000007bffffffffffffffffffffffffffffffffffffffffffffffffffffffff1916827bffffffffffffffffffffffffffffffffffffffffffffffffffffffff1916145b806107d057506107cf8261128d565b5b9050919050565b6060600080546107e69061299f565b80601f01602080910402602001604051908101604052809291908181526020018280546108129061299f565b801561085f5780601f106108345761010080835404028352916020019161085f565b820191906000526020600020905b81548152906001019060200180831161084257829003601f168201915b5050505050905090565b6000610874826112f7565b6004600083815260200190815260200160002060009054906101000a900473ffffffffffffffffffffffffffffffffffffffff169050919050565b60006108ba82610b2e565b90508073ffffffffffffffffffffffffffffffffffffffff168373ffffffffffffffffffffffffffffffffffffffff160361092a576040517f08c379a000000000000000000000000000000000000000000000000000000000815260040161092190612a42565b60405180910390fd5b8073ffffffffffffffffffffffffffffffffffffffff16610949611342565b73ffffffffffffffffffffffffffffffffffffffff161480610978575061097781610972611342565b61115e565b5b6109b7576040517f08c379a00000000000000000000000000000000000000000000000000000000081526004016109ae90612ad4565b60405180910390fd5b6109c1838361134a565b505050565b60085481565b6109d4611403565b80600b60006101000a81548160ff02191690831515021790555050565b610a026109fc611342565b82611481565b610a41576040517f08c379a0000000000000000000000000000000000000000000000000000000008152600401610a3890612b66565b60405180910390fd5b610a4c838383611516565b505050565b610a59611403565b60003373ffffffffffffffffffffffffffffffffffffffff1647604051610a7f90612bb7565b60006040518083038185875af1925050503d8060008114610abc576040519150601f19603f3d011682016040523d82523d6000602084013e610ac1565b606091505b5050905080610b05576040517f08c379a0000000000000000000000000000000000000000000000000000000008152600401610afc90612c18565b60405180910390fd5b50565b610b2383838360405180602001604052806000815250610fe9565b505050565b600a5481565b600080610b3a8361180f565b9050600073ffffffffffffffffffffffffffffffffffffffff168173ffffffffffffffffffffffffffffffffffffffff1603610bab576040517f08c379a0000000000000000000000000000000000000000000000000000000008152600401610ba290612c84565b60405180910390fd5b80915050919050565b60075481565b60106020528060005260406000206000915054906101000a900460ff1681565b60008073ffffffffffffffffffffffffffffffffffffffff168273ffffffffffffffffffffffffffffffffffffffff1603610c4a576040517f08c379a0000000000000000000000000000000000000000000000000000000008152600401610c4190612d16565b60405180910390fd5b600360008373ffffffffffffffffffffffffffffffffffffffff1673ffffffffffffffffffffffffffffffffffffffff168152602001908152602001600020549050919050565b610c99611403565b610ca3600061184c565b565b600e60009054906101000a900473ffffffffffffffffffffffffffffffffffffffff1681565b6000600660009054906101000a900473ffffffffffffffffffffffffffffffffffffffff16905090565b610cfd611403565b8383600c9182610d0e929190612eed565b508181600d9182610d20929190612eed565b5050505050565b606060018054610d369061299f565b80601f0160208091040260200160405190810160405280929190818152602001828054610d629061299f565b8015610daf5780601f10610d8457610100808354040283529160200191610daf565b820191906000526020600020905b815481529060010190602001808311610d9257829003601f168201915b5050505050905090565b600b60009054906101000a900460ff16610e08576040517f08c379a0000000000000000000000000000000000000000000000000000000008152600401610dff90613009565b60405180910390fd5b60008111610e4b576040517f08c379a0000000000000000000000000000000000000000000000000000000008152600401610e4290613075565b60405180910390fd5b60075481610e5991906130c4565b3414610e9a576040517f08c379a0000000000000000000000000000000000000000000000000000000008152600401610e9190613152565b60405180910390fd5b60095481600854610eab9190613172565b1115610eec576040517f08c379a0000000000000000000000000000000000000000000000000000000008152600401610ee3906131f2565b60405180910390fd5b600a5481600f60003373ffffffffffffffffffffffffffffffffffffffff1673ffffffffffffffffffffffffffffffffffffffff16815260200190815260200160002054610f3a9190613172565b1115610f7b576040517f08c379a0000000000000000000000000000000000000000000000000000000008152600401610f729061325e565b60405180910390fd5b60005b81811015610fcf5760006001600854610f979190613172565b905060086000815480929190610fac9061327e565b9190505550610fbb3382611912565b508080610fc79061327e565b915050610f7e565b5050565b610fe5610fde611342565b8383611930565b5050565b610ffa610ff4611342565b83611481565b611039576040517f08c379a000000000000000000000000000000000000000000000000000000000815260040161103090612b66565b60405180910390fd5b61104584848484611a9c565b50505050565b600d80546110589061299f565b80601f01602080910402602001604051908101604052809291908181526020018280546110849061299f565b80156110d15780601f106110a6576101008083540402835291602001916110d1565b820191906000526020600020905b8154815290600101906020018083116110b457829003601f168201915b505050505081565b60606110e482611af8565b611123576040517f08c379a000000000000000000000000000000000000000000000000000000000815260040161111a90613312565b60405180910390fd5b600c61112e83611b39565b600d604051602001611142939291906133f1565b6040516020818303038152906040529050919050565b60095481565b6000600560008473ffffffffffffffffffffffffffffffffffffffff1673ffffffffffffffffffffffffffffffffffffffff16815260200190815260200160002060008373ffffffffffffffffffffffffffffffffffffffff1673ffffffffffffffffffffffffffffffffffffffff16815260200190815260200160002060009054906101000a900460ff16905092915050565b600f6020528060005260406000206000915090505481565b611212611403565b600073ffffffffffffffffffffffffffffffffffffffff168173ffffffffffffffffffffffffffffffffffffffff1603611281576040517f08c379a000000000000000000000000000000000000000000000000000000000815260040161127890613494565b60405180910390fd5b61128a8161184c565b50565b60007f01ffc9a7000000000000000000000000000000000000000000000000000000007bffffffffffffffffffffffffffffffffffffffffffffffffffffffff1916827bffffffffffffffffffffffffffffffffffffffffffffffffffffffff1916149050919050565b61130081611af8565b61133f576040517f08c379a000000000000000000000000000000000000000000000000000000000815260040161133690612c84565b60405180910390fd5b50565b600033905090565b816004600083815260200190815260200160002060006101000a81548173ffffffffffffffffffffffffffffffffffffffff021916908373ffffffffffffffffffffffffffffffffffffffff160217905550808273ffffffffffffffffffffffffffffffffffffffff166113bd83610b2e565b73ffffffffffffffffffffffffffffffffffffffff167f8c5be1e5ebec7d5bd14f71427d1e84f3dd0314c0f7b2291e5b200ac8c7c3b92560405160405180910390a45050565b61140b611342565b73ffffffffffffffffffffffffffffffffffffffff16611429610ccb565b73ffffffffffffffffffffffffffffffffffffffff161461147f576040517f08c379a000000000000000000000000000000000000000000000000000000000815260040161147690613500565b60405180910390fd5b565b60008061148d83610b2e565b90508073ffffffffffffffffffffffffffffffffffffffff168473ffffffffffffffffffffffffffffffffffffffff1614806114cf57506114ce818561115e565b5b8061150d57508373ffffffffffffffffffffffffffffffffffffffff166114f584610869565b73ffffffffffffffffffffffffffffffffffffffff16145b91505092915050565b8273ffffffffffffffffffffffffffffffffffffffff1661153682610b2e565b73ffffffffffffffffffffffffffffffffffffffff161461158c576040517f08c379a000000000000000000000000000000000000000000000000000000000815260040161158390613592565b60405180910390fd5b600073ffffffffffffffffffffffffffffffffffffffff168273ffffffffffffffffffffffffffffffffffffffff16036115fb576040517f08c379a00000000000000000000000000000000000000000000000000000000081526004016115f290613624565b60405180910390fd5b6116088383836001611c07565b8273ffffffffffffffffffffffffffffffffffffffff1661162882610b2e565b73ffffffffffffffffffffffffffffffffffffffff161461167e576040517f08c379a000000000000000000000000000000000000000000000000000000000815260040161167590613592565b60405180910390fd5b6004600082815260200190815260200160002060006101000a81549073ffffffffffffffffffffffffffffffffffffffff02191690556001600360008573ffffffffffffffffffffffffffffffffffffffff1673ffffffffffffffffffffffffffffffffffffffff168152602001908152602001600020600082825403925050819055506001600360008473ffffffffffffffffffffffffffffffffffffffff1673ffffffffffffffffffffffffffffffffffffffff16815260200190815260200160002060008282540192505081905550816002600083815260200190815260200160002060006101000a81548173ffffffffffffffffffffffffffffffffffffffff021916908373ffffffffffffffffffffffffffffffffffffffff160217905550808273ffffffffffffffffffffffffffffffffffffffff168473ffffffffffffffffffffffffffffffffffffffff167fddf252ad1be2c89b69c2b068fc378daa952ba7f163c4a11628f55a4df523b3ef60405160405180910390a461180a8383836001611d2d565b505050565b60006002600083815260200190815260200160002060009054906101000a900473ffffffffffffffffffffffffffffffffffffffff169050919050565b6000600660009054906101000a900473ffffffffffffffffffffffffffffffffffffffff16905081600660006101000a81548173ffffffffffffffffffffffffffffffffffffffff021916908373ffffffffffffffffffffffffffffffffffffffff1602179055508173ffffffffffffffffffffffffffffffffffffffff168173ffffffffffffffffffffffffffffffffffffffff167f8be0079c531659141344cd1fd0a4f28419497f9722a3daafe3b4186f6b6457e060405160405180910390a35050565b61192c828260405180602001604052806000815250611d33565b5050565b8173ffffffffffffffffffffffffffffffffffffffff168373ffffffffffffffffffffffffffffffffffffffff160361199e576040517f08c379a000000000000000000000000000000000000000000000000000000000815260040161199590613690565b60405180910390fd5b80600560008573ffffffffffffffffffffffffffffffffffffffff1673ffffffffffffffffffffffffffffffffffffffff16815260200190815260200160002060008473ffffffffffffffffffffffffffffffffffffffff1673ffffffffffffffffffffffffffffffffffffffff16815260200190815260200160002060006101000a81548160ff0219169083151502179055508173ffffffffffffffffffffffffffffffffffffffff168373ffffffffffffffffffffffffffffffffffffffff167f17307eab39ab6107e8899845ad3d59bd9653f200f220920489ca2b5937696c3183604051611a8f91906122c3565b60405180910390a3505050565b611aa7848484611516565b611ab384848484611d8e565b611af2576040517f08c379a0000000000000000000000000000000000000000000000000000000008152600401611ae990613722565b60405180910390fd5b50505050565b60008073ffffffffffffffffffffffffffffffffffffffff16611b1a8361180f565b73ffffffffffffffffffffffffffffffffffffffff1614159050919050565b606060006001611b4884611f15565b01905060008167ffffffffffffffff811115611b6757611b66612782565b5b6040519080825280601f01601f191660200182016040528015611b995781602001600182028036833780820191505090505b509050600082602001820190505b600115611bfc578080600190039150507f3031323334353637383961626364656600000000000000000000000000000000600a86061a8153600a8581611bf057611bef613742565b5b04945060008503611ba7575b819350505050919050565b6001811115611d2757600073ffffffffffffffffffffffffffffffffffffffff168473ffffffffffffffffffffffffffffffffffffffff1614611c9b5780600360008673ffffffffffffffffffffffffffffffffffffffff1673ffffffffffffffffffffffffffffffffffffffff1681526020019081526020016000206000828254611c939190613771565b925050819055505b600073ffffffffffffffffffffffffffffffffffffffff168373ffffffffffffffffffffffffffffffffffffffff1614611d265780600360008573ffffffffffffffffffffffffffffffffffffffff1673ffffffffffffffffffffffffffffffffffffffff1681526020019081526020016000206000828254611d1e9190613172565b925050819055505b5b50505050565b50505050565b611d3d8383612068565b611d4a6000848484611d8e565b611d89576040517f08c379a0000000000000000000000000000000000000000000000000000000008152600401611d8090613722565b60405180910390fd5b505050565b6000611daf8473ffffffffffffffffffffffffffffffffffffffff16612285565b15611f08578373ffffffffffffffffffffffffffffffffffffffff1663150b7a02611dd8611342565b8786866040518563ffffffff1660e01b8152600401611dfa94939291906137fa565b6020604051808303816000875af1925050508015611e3657506040513d601f19601f82011682018060405250810190611e33919061385b565b60015b611eb8573d8060008114611e66576040519150601f19603f3d011682016040523d82523d6000602084013e611e6b565b606091505b506000815103611eb0576040517f08c379a0000000000000000000000000000000000000000000000000000000008152600401611ea790613722565b60405180910390fd5b805181602001fd5b63150b7a0260e01b7bffffffffffffffffffffffffffffffffffffffffffffffffffffffff1916817bffffffffffffffffffffffffffffffffffffffffffffffffffffffff191614915050611f0d565b600190505b949350505050565b600080600090507a184f03e93ff9f4daa797ed6e38ed64bf6a1f0100000000000000008310611f73577a184f03e93ff9f4daa797ed6e38ed64bf6a1f0100000000000000008381611f6957611f68613742565b5b0492506040810190505b6d04ee2d6d415b85acef81000000008310611fb0576d04ee2d6d415b85acef81000000008381611fa657611fa5613742565b5b0492506020810190505b662386f26fc100008310611fdf57662386f26fc100008381611fd557611fd4613742565b5b0492506010810190505b6305f5e1008310612008576305f5e1008381611ffe57611ffd613742565b5b0492506008810190505b612710831061202d57612710838161202357612022613742565b5b0492506004810190505b60648310612050576064838161204657612045613742565b5b0492506002810190505b600a831061205f576001810190505b80915050919050565b600073ffffffffffffffffffffffffffffffffffffffff168273ffffffffffffffffffffffffffffffffffffffff16036120d7576040517f08c379a00000000000000000000000000000000000000000000000000000000081526004016120ce906138d4565b60405180910390fd5b6120e081611af8565b15612120576040517f08c379a000000000000000000000000000000000000000000000000000000000815260040161211790613940565b60405180910390fd5b61212e600083836001611c07565b61213781611af8565b15612177576040517f08c379a000000000000000000000000000000000000000000000000000000000815260040161216e90613940565b60405180910390fd5b6001600360008473ffffffffffffffffffffffffffffffffffffffff1673ffffffffffffffffffffffffffffffffffffffff16815260200190815260200160002060008282540192505081905550816002600083815260200190815260200160002060006101000a81548173ffffffffffffffffffffffffffffffffffffffff021916908373ffffffffffffffffffffffffffffffffffffffff160217905550808273ffffffffffffffffffffffffffffffffffffffff16600073ffffffffffffffffffffffffffffffffffffffff167fddf252ad1be2c89b69c2b068fc378daa952ba7f163c4a11628f55a4df523b3ef60405160405180910390a4612281600083836001611d2d565b5050565b6000808273ffffffffffffffffffffffffffffffffffffffff163b119050919050565b60008115159050919050565b6122bd816122a8565b82525050565b60006020820190506122d860008301846122b4565b92915050565b6000604051905090565b600080fd5b600080fd5b60007fffffffff0000000000000000000000000000000000000000000000000000000082169050919050565b612327816122f2565b811461233257600080fd5b50565b6000813590506123448161231e565b92915050565b6000602082840312156123605761235f6122e8565b5b600061236e84828501612335565b91505092915050565b600081519050919050565b600082825260208201905092915050565b60005b838110156123b1578082015181840152602081019050612396565b60008484015250505050565b6000601f19601f8301169050919050565b60006123d982612377565b6123e38185612382565b93506123f3818560208601612393565b6123fc816123bd565b840191505092915050565b6000602082019050818103600083015261242181846123ce565b905092915050565b6000819050919050565b61243c81612429565b811461244757600080fd5b50565b60008135905061245981612433565b92915050565b600060208284031215612475576124746122e8565b5b60006124838482850161244a565b91505092915050565b600073ffffffffffffffffffffffffffffffffffffffff82169050919050565b60006124b78261248c565b9050919050565b6124c7816124ac565b82525050565b60006020820190506124e260008301846124be565b92915050565b6124f1816124ac565b81146124fc57600080fd5b50565b60008135905061250e816124e8565b92915050565b6000806040838503121561252b5761252a6122e8565b5b6000612539858286016124ff565b925050602061254a8582860161244a565b9150509250929050565b61255d81612429565b82525050565b60006020820190506125786000830184612554565b92915050565b612587816122a8565b811461259257600080fd5b50565b6000813590506125a48161257e565b92915050565b6000602082840312156125c0576125bf6122e8565b5b60006125ce84828501612595565b91505092915050565b6000806000606084860312156125f0576125ef6122e8565b5b60006125fe868287016124ff565b935050602061260f868287016124ff565b92505060406126208682870161244a565b9150509250925092565b6000602082840312156126405761263f6122e8565b5b600061264e848285016124ff565b91505092915050565b600080fd5b600080fd5b600080fd5b60008083601f84011261267c5761267b612657565b5b8235905067ffffffffffffffff8111156126995761269861265c565b5b6020830191508360018202830111156126b5576126b4612661565b5b9250929050565b600080600080604085870312156126d6576126d56122e8565b5b600085013567ffffffffffffffff8111156126f4576126f36122ed565b5b61270087828801612666565b9450945050602085013567ffffffffffffffff811115612723576127226122ed565b5b61272f87828801612666565b925092505092959194509250565b60008060408385031215612754576127536122e8565b5b6000612762858286016124ff565b925050602061277385828601612595565b9150509250929050565b600080fd5b7f4e487b7100000000000000000000000000000000000000000000000000000000600052604160045260246000fd5b6127ba826123bd565b810181811067ffffffffffffffff821117156127d9576127d8612782565b5b80604052505050565b60006127ec6122de565b90506127f882826127b1565b919050565b600067ffffffffffffffff82111561281857612817612782565b5b612821826123bd565b9050602081019050919050565b82818337600083830152505050565b600061285061284b846127fd565b6127e2565b90508281526020810184848401111561286c5761286b61277d565b5b61287784828561282e565b509392505050565b600082601f83011261289457612893612657565b5b81356128a484826020860161283d565b91505092915050565b600080600080608085870312156128c7576128c66122e8565b5b60006128d5878288016124ff565b94505060206128e6878288016124ff565b93505060406128f78782880161244a565b925050606085013567ffffffffffffffff811115612918576129176122ed565b5b6129248782880161287f565b91505092959194509250565b60008060408385031215612947576129466122e8565b5b6000612955858286016124ff565b9250506020612966858286016124ff565b9150509250929050565b7f4e487b7100000000000000000000000000000000000000000000000000000000600052602260045260246000fd5b600060028204905060018216806129b757607f821691505b6020821081036129ca576129c9612970565b5b50919050565b7f4552433732313a20617070726f76616c20746f2063757272656e74206f776e6560008201527f7200000000000000000000000000000000000000000000000000000000000000602082015250565b6000612a2c602183612382565b9150612a37826129d0565b604082019050919050565b60006020820190508181036000830152612a5b81612a1f565b9050919050565b7f4552433732313a20617070726f76652063616c6c6572206973206e6f7420746f60008201527f6b656e206f776e6572206f7220617070726f76656420666f7220616c6c000000602082015250565b6000612abe603d83612382565b9150612ac982612a62565b604082019050919050565b60006020820190508181036000830152612aed81612ab1565b9050919050565b7f4552433732313a2063616c6c6572206973206e6f7420746f6b656e206f776e6560008201527f72206f7220617070726f76656400000000000000000000000000000000000000602082015250565b6000612b50602d83612382565b9150612b5b82612af4565b604082019050919050565b60006020820190508181036000830152612b7f81612b43565b9050919050565b600081905092915050565b50565b6000612ba1600083612b86565b9150612bac82612b91565b600082019050919050565b6000612bc282612b94565b9150819050919050565b7f5769746864726177616c206661696c6564000000000000000000000000000000600082015250565b6000612c02601183612382565b9150612c0d82612bcc565b602082019050919050565b60006020820190508181036000830152612c3181612bf5565b9050919050565b7f4552433732313a20696e76616c696420746f6b656e2049440000000000000000600082015250565b6000612c6e601883612382565b9150612c7982612c38565b602082019050919050565b60006020820190508181036000830152612c9d81612c61565b9050919050565b7f4552433732313a2061646472657373207a65726f206973206e6f74206120766160008201527f6c6964206f776e65720000000000000000000000000000000000000000000000602082015250565b6000612d00602983612382565b9150612d0b82612ca4565b604082019050919050565b60006020820190508181036000830152612d2f81612cf3565b9050919050565b600082905092915050565b60008190508160005260206000209050919050565b60006020601f8301049050919050565b600082821b905092915050565b600060088302612da37fffffffffffffffffffffffffffffffffffffffffffffffffffffffffffffffff82612d66565b612dad8683612d66565b95508019841693508086168417925050509392505050565b6000819050919050565b6000612dea612de5612de084612429565b612dc5565b612429565b9050919050565b6000819050919050565b612e0483612dcf565b612e18612e1082612df1565b848454612d73565b825550505050565b600090565b612e2d612e20565b612e38818484612dfb565b505050565b5b81811015612e5c57612e51600082612e25565b600181019050612e3e565b5050565b601f821115612ea157612e7281612d41565b612e7b84612d56565b81016020851015612e8a578190505b612e9e612e9685612d56565b830182612e3d565b50505b505050565b600082821c905092915050565b6000612ec460001984600802612ea6565b1980831691505092915050565b6000612edd8383612eb3565b9150826002028217905092915050565b612ef78383612d36565b67ffffffffffffffff811115612f1057612f0f612782565b5b612f1a825461299f565b612f25828285612e60565b6000601f831160018114612f545760008415612f42578287013590505b612f4c8582612ed1565b865550612fb4565b601f198416612f6286612d41565b60005b82811015612f8a57848901358255600182019150602085019450602081019050612f65565b86831015612fa75784890135612fa3601f891682612eb3565b8355505b6001600288020188555050505b50505050505050565b7f4d696e74696e67206e6f7420656e61626c656400000000000000000000000000600082015250565b6000612ff3601383612382565b9150612ffe82612fbd565b602082019050919050565b6000602082019050818103600083015261302281612fe6565b9050919050565b7f596f75206d757374206d696e74206174206c65617374206f6e65204e46540000600082015250565b600061305f601e83612382565b915061306a82613029565b602082019050919050565b6000602082019050818103600083015261308e81613052565b9050919050565b7f4e487b7100000000000000000000000000000000000000000000000000000000600052601160045260246000fd5b60006130cf82612429565b91506130da83612429565b92508282026130e881612429565b915082820484148315176130ff576130fe613095565b5b5092915050565b7f57726f6e67206d696e742076616c756500000000000000000000000000000000600082015250565b600061313c601083612382565b915061314782613106565b602082019050919050565b6000602082019050818103600083015261316b8161312f565b9050919050565b600061317d82612429565b915061318883612429565b92508282019050808211156131a05761319f613095565b5b92915050565b7f536f6c64206f7574000000000000000000000000000000000000000000000000600082015250565b60006131dc600883612382565b91506131e7826131a6565b602082019050919050565b6000602082019050818103600083015261320b816131cf565b9050919050565b7f4578636565646564206d61782077616c6c657400000000000000000000000000600082015250565b6000613248601383612382565b915061325382613212565b602082019050919050565b600060208201905081810360008301526132778161323b565b9050919050565b600061328982612429565b91507fffffffffffffffffffffffffffffffffffffffffffffffffffffffffffffffff82036132bb576132ba613095565b5b600182019050919050565b7f546f6b656e20646f6573206e6f74206578697374210000000000000000000000600082015250565b60006132fc601583612382565b9150613307826132c6565b602082019050919050565b6000602082019050818103600083015261332b816132ef565b9050919050565b600081905092915050565b6000815461334a8161299f565b6133548186613332565b9450600182166000811461336f5760018114613384576133b7565b60ff19831686528115158202860193506133b7565b61338d85612d41565b60005b838110156133af57815481890152600182019150602081019050613390565b838801955050505b50505092915050565b60006133cb82612377565b6133d58185613332565b93506133e5818560208601612393565b80840191505092915050565b60006133fd828661333d565b915061340982856133c0565b9150613415828461333d565b9150819050949350505050565b7f4f776e61626c653a206e6577206f776e657220697320746865207a65726f206160008201527f6464726573730000000000000000000000000000000000000000000000000000602082015250565b600061347e602683612382565b915061348982613422565b604082019050919050565b600060208201905081810360008301526134ad81613471565b9050919050565b7f4f776e61626c653a2063616c6c6572206973206e6f7420746865206f776e6572600082015250565b60006134ea602083612382565b91506134f5826134b4565b602082019050919050565b60006020820190508181036000830152613519816134dd565b9050919050565b7f4552433732313a207472616e736665722066726f6d20696e636f72726563742060008201527f6f776e6572000000000000000000000000000000000000000000000000000000602082015250565b600061357c602583612382565b915061358782613520565b604082019050919050565b600060208201905081810360008301526135ab8161356f565b9050919050565b7f4552433732313a207472616e7366657220746f20746865207a65726f2061646460008201527f7265737300000000000000000000000000000000000000000000000000000000602082015250565b600061360e602483612382565b9150613619826135b2565b604082019050919050565b6000602082019050818103600083015261363d81613601565b9050919050565b7f4552433732313a20617070726f766520746f2063616c6c657200000000000000600082015250565b600061367a601983612382565b915061368582613644565b602082019050919050565b600060208201905081810360008301526136a98161366d565b9050919050565b7f4552433732313a207472616e7366657220746f206e6f6e20455243373231526560008201527f63656976657220696d706c656d656e7465720000000000000000000000000000602082015250565b600061370c603283612382565b9150613717826136b0565b604082019050919050565b6000602082019050818103600083015261373b816136ff565b9050919050565b7f4e487b7100000000000000000000000000000000000000000000000000000000600052601260045260246000fd5b600061377c82612429565b915061378783612429565b925082820390508181111561379f5761379e613095565b5b92915050565b600081519050919050565b600082825260208201905092915050565b60006137cc826137a5565b6137d681856137b0565b93506137e6818560208601612393565b6137ef816123bd565b840191505092915050565b600060808201905061380f60008301876124be565b61381c60208301866124be565b6138296040830185612554565b818103606083015261383b81846137c1565b905095945050505050565b6000815190506138558161231e565b92915050565b600060208284031215613871576138706122e8565b5b600061387f84828501613846565b91505092915050565b7f4552433732313a206d696e7420746f20746865207a65726f2061646472657373600082015250565b60006138be602083612382565b91506138c982613888565b602082019050919050565b600060208201905081810360008301526138ed816138b1565b9050919050565b7f4552433732313a20746f6b656e20616c7265616479206d696e74656400000000600082015250565b600061392a601c83612382565b9150613935826138f4565b602082019050919050565b600060208201905081810360008301526139598161391d565b905091905056fea2646970667358221220d74348a89cf05c4371cbb3093160e0978cf7156ccfae5acc76fada40bb8e5e0d64736f6c63430008110033",
    "linkReferences": {},
    "deployedLinkReferences": {}
}